:020000040800F2
:1000000000500020B10800084D08000855080008FD
:100010005D080008650800086D0800080000000081
:10002000000000000000000000000000750800084B
:1000300081080008000000008D08000899080008E9
:10004000F9080008F9080008F9080008F90800088C
:10005000F9080008F9080008F9080008F90800087C
:10006000F9080008F9080008F9080008F90800086C
:10007000F9080008F9080008F9080008F90800085C
:10008000F9080008F9080008F9080008F90800084C
:10009000F9080008F9080008F9080008F90800083C
:1000A000F9080008F9080008F9080008F90800082C
:1000B000F9080008F9080008F9080008F90800081C
:1000C000F9080008F9080008F9080008F90800080C
:1000D000F9080008F9080008F9080008F9080008FC
:1000E000F9080008F9080008F908000800000000F5
:1000F0000000000000000000000000000000000000
:0C01000000000000000000005FF808F1A3
:10010C0010B5054C237833B9044B13B10448AFF345
:10011C0000800123237010BD10000020000000009F
:10012C00CC28000808B5034B1BB103490348AFF3B7
:10013C00008008BD0000000014000020CC2800083E
:10014C0080B586B002AF0346FB71FB7923F00F0339
:10015C00FB73FB791B01BB73FB7B43F00C03DBB222
:10016C003B72FB7B43F00803DBB27B72BB7B43F03F
:10017C000C03DBB2BB72BB7B43F00803DBB2FB723C
:10018C0007F108026423009304234E21034801F075
:10019C0017FC00BF1037BD4680BD00BF54000020C7
:1001AC0080B586B002AF0346FB71FB7923F00F03D9
:1001BC00FB73FB791B01BB73FB7B43F00D03DBB2C1
:1001CC003B72FB7B43F00903DBB27B72BB7B43F0DE
:1001DC000D03DBB2BB72BB7B43F00903DBB2FB72DA
:1001EC0007F108026423009304234E21034801F015
:1001FC00E7FB00BF1037BD4680BD00BF5400002098
:10020C0080B500AF0220FFF79BFF2820FFF798FF77
:10021C000C20FFF795FF8020FFF792FF00BF80BDF9
:10022C0080B582B000AF786006E07B685A1C7A60BB
:10023C001B781846FFF7B4FF7B681B78002BF4D1B2
:10024C0000BF00BF0837BD4680BD000080B500AFC1
:10025C0000F04EFB00F008F900F0B0F900F04AF99C
:10026C0000F07EF9FFF7CCFF8020FFF769FF6F48A5
:10027C00FFF7D6FF6E4800F085FD02216C4800F0B8
:10028C00B5FF6C4B01221A616A4B00229A60694BD4
:10029C000022DA60674B40F203321A60664B01228F
:1002AC001A62654B00225A61634B00221A61624B41
:1002BC0000221A60604B00225A605F4B00229A6049
:1002CC005D4B0022DA605C4B00229A615A4B012292
:1002DC00DA615949564800F08CFC584B1B78002BBE
:1002EC000DD1574B1A78574B1A70574B1B68554A00
:1002FC0050494F4800F08AFD504B01221A703220B1
:10030C0000F058FB514B524A0021494800F04DFE79
:10031C004F4B1B6840F201129342DED14B4B1A78C3
:10032C004C4B1A70494B5A784B4B1A70434B00226A
:10033C001A700120FFF704FF8020FFF701FF4748E8
:10034C00FFF76EFF434B1B78082B13D8C020FFF729
:10035C00F7FE404B1A78424BA3FB0213D9080B460D
:10036C009B000B445B00D31ADBB230331846FFF70B
:10037C0017FFB2E7374B1B78092B22D9354B1B786B
:10038C00632B1ED8C020FFF7DBFE324B1B78344AA0
:10039C00A2FB0323DB08DBB230331846FFF700FF68
:1003AC002C4B1A782E4BA3FB0213D9080B469B003F
:1003BC000B445B00D31ADBB230331846FFF7F0FE68
:1003CC0032E0C020FFF7BCFE224B1B78254AA2FB73
:1003DC0003235B09DBB230331846FFF7E1FE1D4BFC
:1003EC001B781F4AA2FB0323DB08DAB21C4BA3FBCE
:1003FC000213D9080B469B000B445B00D31ADBB2EB
:10040C0030331846FFF7CCFE124B1A78144BA3FB73
:10041C000213D9080B469B000B445B00D31ADBB2CA
:10042C0030331846FFF7BCFE57E700BFE42800083E
:10043C002C000020A8000020DC000020100100206F
:10044C000000002008010020040100200C01002005
:10045C00C00000200E0100200F010020F828000829
:10046C00CDCCCCCC1F85EB5180B590B000AF07F153
:10047C00180328220021184602F0F6F93B1D002231
:10048C001A605A609A60DA601A610123BB614FF4FA
:10049C008033FB6100233B620123BB6202237B633D
:1004AC004FF48033BB634FF4E013FB6307F1180385
:1004BC00184601F0DDFD0346002B01D000F0EAF8F0
:1004CC000F237B600223BB600023FB604FF480632F
:1004DC003B6100237B613B1D0221184602F04AF868
:1004EC000346002B01D000F0D5F800BF4037BD46C5
:1004FC0080BD000080B500AF174B184A1A60164B30
:10050C0009225A60144B00229A60134B0022DA60C5
:10051C00114B4FF410221A610F4B4FF480025A61A9
:10052C000D4B00221A760C4B00225A760A4B0022F5
:10053C009A76094B0022DA76074B00221A77064B83
:10054C0000225A77044800F059FA0346002B01D0D8
:10055C0000F0A0F800BF80BD2C000020006400401B
:10056C0080B500AF124B134A1A60114B124A5A60F5
:10057C000F4B00229A600E4B0022DA600C4B4FF4AA
:10058C0080421A610A4B00225A61094B00229A617F
:10059C00074B0022DA61064B00221A62044801F074
:1005AC00CBF80346002B01D000F074F800BF80BDDF
:1005BC005400002000540040A086010080B588B093
:1005CC0000AF07F1100300221A605A609A60DA60DB
:1005DC002D4B9B692C4A43F0100393612A4B9B696A
:1005EC0003F01003FB60FB68274B9B69264A43F022
:1005FC0020039361244B9B6903F02003BB60BB6811
:10060C00214B9B69204A43F0040393611E4B9B6969
:10061C0003F004037B607B681B4B9B691A4A43F015
:10062C0008039361184B9B6903F008033B603B681C
:10063C0000224FF40051154801F066F800220C21FD
:10064C00134801F061F84FF400533B6101237B61C7
:10065C000023BB610223FB6107F1100319460B4811
:10066C0000F0CEFE0C233B6101237B610023BB61B8
:10067C000223FB6107F110031946054800F0C0FE88
:10068C0000BF2037BD4680BD001002400010014065
:10069C000008014080B400AF72B600BF00BFFDE798
:1006AC0080B485B000AF154B9B69144A43F001032D
:1006BC009361124B9B6903F00103BB60BB680F4B4A
:1006CC00DB690E4A43F08053D3610C4BDB6903F0BA
:1006DC0080537B607B680A4B5B68FB60FB6823F094
:1006EC00E063FB60FB6843F00073FB60044AFB684B
:1006FC00536000BF1437BD4680BC704700100240E9
:10070C000000014080B58AB000AF786007F1140397
:10071C0000221A605A609A60DA607B681B68254A6E
:10072C00934243D1244BDB69234A43F00073D361DA
:10073C00214BDB6903F000733B613B691E4B9B69EA
:10074C001D4A43F0080393611B4B9B6903F008039C
:10075C00FB60FB684FF480737B610023BB6100235B
:10076C00FB6107F114031946144800F049FE4FF4DD
:10077C0000737B610223BB6103233B6207F114030B
:10078C0019460E4800F03CFE0D4B5B687B627B6AA1
:10079C0023F4C0437B627B6A43F0E0637B627B6A39
:1007AC0043F480437B62064A7B6A536000BF283760
:1007BC00BD4680BD0064004000100240000C0140AA
:1007CC000000014080B588B000AF786007F11003DD
:1007DC0000221A605A609A60DA607B681B68154ABE
:1007EC00934223D1144B9B69134A43F00803936142
:1007FC00114B9B6903F00803FB60FB68C0233B6152
:10080C0012237B610323FB6107F1100319460B488C
:10081C0000F0F6FD084BDB69074A43F40013D36183
:10082C00054BDB6903F40013BB60BB6800BF2037CA
:10083C00BD4680BD0054004000100240000C014039
:10084C0080B400AF00BFFDE780B400AF00BFFDE790
:10085C0080B400AF00BFFDE780B400AF00BFFDE780
:10086C0080B400AF00BFFDE780B400AF00BFBD4651
:10087C0080BC704780B400AF00BFBD4680BC7047E1
:10088C0080B400AF00BFBD4680BC704780B500AFE0
:10089C0000F074F800BF80BD80B400AF00BFBD464F
:1008AC0080BC7047FFF7F8FF0B480C490C4A00233B
:1008BC0002E0D458C4500433C4188C42F9D3094A0A
:1008CC00094C002301E013600432A242FBD301F077
:1008DC00D3FFFFF7BBFC7047000000201000002086
:1008EC003C2900081000002018010020FEE7000041
:1008FC0080B500AF084B1B68074A43F01003136028
:10090C00032000F049FD0F2000F008F8FFF7C8FEA7
:10091C000023184680BD00BF0020024080B582B085
:10092C0000AF7860124B1A68124B1B7819464FF4C3
:10093C007A73B3FBF1F3B2FBF3F3184600F053FDFB
:10094C000346002B01D001230EE07B680F2B0AD845
:10095C00002279684FF0FF3000F029FD064A7B68D1
:10096C001360002300E0012318460837BD4680BD04
:10097C00040000200C0000200800002080B400AF10
:10098C00054B1B781A46054B1B681344034A13602E
:10099C0000BFBD4680BC70470C0000201401002035
:1009AC0080B400AF024B1B681846BD4680BC704734
:1009BC001401002080B584B000AF7860FFF7F0FF21
:1009CC00B8607B68FB60FB68B3F1FF3F05D00A4B56
:1009DC001B781A46FB681344FB6000BFFFF7E0FF6F
:1009EC000246BB68D31AFA689A42F7D800BF00BF18
:1009FC001037BD4680BD00BF0C00002080B584B010
:100A0C0000AF78607B68002B01D10123EDE07B689F
:100A1C0093F82030DBB2002B02D17868FFF772FE1E
:100A2C007B681B681A687B681B6842F001021A60BD
:100A3C00FFF7B6FFF86012E0FFF7B2FF0246FB6863
:100A4C00D31A0A2B0BD97B685B6A43F400327B68A0
:100A5C005A627B68052283F820200123C5E07B685D
:100A6C001B685B6803F00103002BE5D07B681B68F7
:100A7C001A687B681B6822F002021A60FFF790FF6D
:100A8C00F86012E0FFF78CFF0246FB68D31A0A2BC2
:100A9C000BD97B685B6A43F400327B685A627B68D3
:100AAC00052283F8202001239FE07B681B685B688C
:100ABC0003F00203002BE5D17B681B7E012B08D1D0
:100ACC007B681B681A687B681B6842F080021A609E
:100ADC0007E07B681B681A687B681B6822F0800241
:100AEC001A607B685B7E012B08D17B681B681A68D7
:100AFC007B681B6842F040021A6007E07B681B6849
:100B0C001A687B681B6822F040021A607B689B7E27
:100B1C00012B08D17B681B681A687B681B6842F044
:100B2C0020021A6007E07B681B681A687B681B68E8
:100B3C0022F020021A607B68DB7E012B08D17B68D7
:100B4C001B681A687B681B6822F010021A6007E0A9
:100B5C007B681B681A687B681B6842F010021A607D
:100B6C007B681B7F012B08D17B681B681A687B682C
:100B7C001B6842F008021A6007E07B681B681A6861
:100B8C007B681B6822F008021A607B685B7F012B74
:100B9C0008D17B681B681A687B681B6842F00402EA
:100BAC001A6007E07B681B681A687B681B6822F078
:100BBC0004021A607B689A687B68DB681A437B685E
:100BCC001B691A437B685B6942EA03017B685B68BB
:100BDC005A1E7B681B680A43DA617B6800225A62E2
:100BEC007B68012283F82020002318461037BD466D
:100BFC0080BD80B487B000AF786039607B681B68BB
:100C0C007B617B6893F82030FB74FB7C012B03D059
:100C1C00FB7C022B40F0AA807B69D3F8003243F0B6
:100C2C0001027B69C3F800223B685B6903F01F0378
:100C3C00012202FA03F3FB607B69D3F81C22FB68E8
:100C4C00DB431A407B69C3F81C223B68DB69002B31
:100C5C0023D17B69D3F80C22FB68DB431A407B69F8
:100C6C00C3F80C223B68DB6819043B685B689BB2D9
:100C7C003A68526919437B69483243F832103B6831
:100C8C009B6819043B681B689AB23B685B690A4312
:100C9C0079694833DB000B445A603B68DB69012BF4
:100CAC0022D17B69D3F80C22FB681A437B69C3F809
:100CBC000C223B681B6819043B685B689BB23A6862
:100CCC00526919437B69483243F832103B689B6880
:100CDC0019043B68DB689AB23B685B690A43796923
:100CEC004833DB000B445A603B689B69002B09D1ED
:100CFC007B69D3F80422FB68DB431A407B69C3F899
:100D0C00042207E07B69D3F80422FB681A437B6951
:100D1C00C3F804223B681B69002B09D17B69D3F80B
:100D2C001422FB68DB431A407B69C3F8142207E0EA
:100D3C007B69D3F81422FB681A437B69C3F814222D
:100D4C003B681B6A012B07D17B69D3F81C22FB681B
:100D5C001A437B69C3F81C227B69D3F8003223F059
:100D6C0001027B69C3F80022002306E07B685B6A02
:100D7C0043F480227B685A62012318461C37BD4617
:100D8C0080BC704780B584B000AF78607B6893F806
:100D9C002030DBB2012B2ED17B68022283F820207D
:100DAC007B681B681A687B681B6822F001021A605A
:100DBC00FFF7F6FDF86012E0FFF7F2FD0246FB6864
:100DCC00D31A0A2B0BD97B685B6A43F400327B681D
:100DDC005A627B68052283F82020012312E07B688D
:100DEC001B685B6803F00103002BE5D17B680022D4
:100DFC005A62002306E07B685B6A43F400227B683E
:100E0C005A62012318461037BD4680BD80B489B0A4
:100E1C0000AFF860B9607A603B60FB6893F82030F3
:100E2C00FB77FB681B689B68BB61FB7F012B03D0C6
:100E3C00FB7F022B40F0AD80BB6903F08063002B7D
:100E4C000AD1BB6903F00063002B05D1BB6903F029
:100E5C008053002B00F09580BB691B0E03F003033D
:100E6C007B6101227B699A403B681A60BB689B6876
:100E7C00002B0DD1BB681B685A05BB68DB68F96891
:100E8C0009681A437B6918331B010B441A600FE085
:100E9C00BB685B68DA00BB689B681A43BB68DB689D
:100EAC00F96809681A437B6918331B010B441A60F3
:100EBC00FB681968BB681A697B6918331B010B4402
:100ECC0004331A60BB681B7D012B11D1FB681A68B7
:100EDC007B6918331B01134404331B68FA681168CF
:100EEC0043F480727B6918331B010B4404331A6082
:100EFC007B6807331B781A067B6806331B781B0448
:100F0C001A437B6805331B781B0213437A6804323F
:100F1C0012781046FA68116843EA00027B691B01DB
:100F2C000B4403F5C6731A607B6803331B781A06EF
:100F3C007B6802331B781B041A437B6801331B78D4
:100F4C001B0213437A6812781046FA68116843EA58
:100F5C0000027B691B010B4403F5C4731A60FB6828
:100F6C001A687B6918331B0113441B68FA681168F3
:100F7C0043F001027B6918331B010B441A600023F8
:100F8C000EE0FB685B6A43F40012FB685A620123B3
:100F9C0006E0FB685B6A43F48022FB685A6201231B
:100FAC0018462437BD4680BC704780B487B000AF6C
:100FBC00F860B9607A603B60FB6893F82030FB7591
:100FCC00FB7D012B03D0FB7D022B40F00381BB6822
:100FDC00002B0ED1FB681B68DB6803F00303002BAE
:100FEC0016D1FB685B6A43F40012FB685A6201235A
:100FFC00F7E0FB681B681B6903F00303002B07D1A8
:10100C00FB685B6A43F40012FB685A620123E8E058
:10101C00FB681A68BB681B331B0113441B6803F085
:10102C0004027B689A607B689B68002B0CD1FB6880
:10103C001A68BB681B331B0113441B685B0DC3F39D
:10104C000A027B681A600BE0FB681A68BB681B33EA
:10105C001B0113441B68DB0823F060427B685A6059
:10106C00FB681A68BB681B331B0113441B6803F035
:10107C0002027B68DA60FB681A68BB681B331B01D1
:10108C00134404331B6803F00803002B03D07B6864
:10109C0008221A610BE0FB681A68BB681B331B0142
:1010AC00134404331B6803F00F027B681A61FB685E
:1010BC001A68BB681B331B01134404331B681B0ADF
:1010CC00DAB27B689A61FB681A68BB681B331B0138
:1010DC00134404331B681B0C9AB27B685A61FB687F
:1010EC001A68BB681B01134403F5DC731B68DAB286
:1010FC003B681A70FB681A68BB681B01134403F544
:10110C00DC731B681A0A3B680133D2B21A70FB6895
:10111C001A68BB681B01134403F5DC731B681A0CBB
:10112C003B680233D2B21A70FB681A68BB681B01A9
:10113C00134403F5DC731B681A0E3B680333D2B2FD
:10114C001A70FB681A68BB681B01134403F5DE7345
:10115C001A683B680433D2B21A70FB681A68BB6811
:10116C001B01134403F5DE731B681A0A3B68053335
:10117C00D2B21A70FB681A68BB681B01134403F5E2
:10118C00DE731B681A0C3B680633D2B21A70FB680C
:10119C001A68BB681B01134403F5DE731B681A0E37
:1011AC003B680733D2B21A70BB68002B08D1FB68BE
:1011BC001B68DA68FB681B6842F02002DA6007E003
:1011CC00FB681B681A69FB681B6842F020021A61F5
:1011DC00002306E0FB685B6A43F48022FB685A62DA
:1011EC00012318461C37BD4680BC704780B485B0BF
:1011FC0000AF786039607B6893F82030FB73FB7B21
:10120C00012B02D0FB7B022B09D17B681B6859692F
:10121C007B681B683A680A435A61002306E07B68C6
:10122C005B6A43F480227B685A62012318461437A8
:10123C00BD4680BC7047000080B485B000AF7860BC
:10124C007B6803F00703FB600C4BDB68BB60BA6880
:10125C004FF6FF031340BB60FB681A02BB681343D5
:10126C0043F0BF6343F40033BB60044ABB68D360F4
:10127C0000BF1437BD4680BC704700BF00ED00E0D6
:10128C0080B400AF044BDB681B0A03F0070318465D
:10129C00BD4680BC704700BF00ED00E080B483B059
:1012AC0000AF03463960FB7197F90730002B0ADB5E
:1012BC003B68DAB20C4997F907301201D2B20B44F1
:1012CC0083F800230AE03B68DAB20849FB7903F0A3
:1012DC000F03043B1201D2B20B441A7600BF0C3739
:1012EC00BD4680BC704700BF00E100E000ED00E0AF
:1012FC0080B489B000AFF860B9607A60FB6803F025
:10130C000703FB61FB69C3F10703042B28BF04230C
:10131C00BB61FB690433062B02D9FB69033B00E07C
:10132C0000237B614FF0FF32BB6902FA03F3DA430F
:10133C00BB681A407B699A404FF0FF317B6901FA18
:10134C0003F3D9437B680B40134318462437BD463F
:10135C0080BC704780B582B000AF78607B68013B81
:10136C00B3F1807F01D301230FE00A4A7B68013B74
:10137C0053600F214FF0FF30FFF790FF054B002219
:10138C009A60044B07221A60002318460837BD46A2
:10139C0080BD00BF10E000E080B582B000AF786087
:1013AC007868FFF749FF00BF0837BD4680BD80B5A0
:1013BC0086B000AF0346B9607A60FB7300237B6193
:1013CC00FFF75EFF78617A68B9687869FFF790FF7C
:1013DC00024697F90F3011461846FFF75FFF00BF22
:1013EC001837BD4680BD80B582B000AF7860786894
:1013FC00FFF7B0FF034618460837BD4680BD000016
:10140C0080B48BB000AF7860396000237B6200231E
:10141C003B6269E101227B6A02FA03F3FB613B68E0
:10142C001B68FA691340BB61BA69FB699A4240F0C8
:10143C0058813B685B689A4A93425ED0984A9342C3
:10144C0075D8984A934258D0964A93426FD8964A88
:10145C00934252D0944A934269D8944A93424CD0C6
:10146C00924A934263D8924A934246D0904A93420E
:10147C005DD8122B2AD8122B59D801A252F823F07E
:10148C0007150008E1140008F314000835150008CE
:10149C003B1500083B1500083B1500083B150008E0
:1014AC003B1500083B1500083B1500083B150008D0
:1014BC003B1500083B1500083B1500083B150008C0
:1014CC003B150008E9140008FD140008794A934202
:1014DC0013D02CE03B68DB683B6229E03B68DB689F
:1014EC0004333B6224E03B68DB6808333B621FE05B
:1014FC003B68DB680C333B621AE03B689B68002B53
:10150C0002D104233B6213E03B689B68012B05D19D
:10151C0008233B627B68FA691A6109E008233B6285
:10152C007B68FA695A6103E000233B6200E000BF6C
:10153C00BB69FF2B01D87B6801E07B6804337B61BE
:10154C00BB69FF2B02D87B6A9B0002E07B6A083BDD
:10155C009B003B617B691A680F213B6901FA03F31D
:10156C00DB431A40396A3B6901FA03F31A437B697E
:10157C001A603B685B6803F08053002B00F0B1806D
:10158C004D4B9B694C4A43F0010393614A4B9B6959
:10159C0003F00103BB60BB68484A7B6A9B080233BB
:1015AC0052F82330FB607B6A03F003039B000F228D
:1015BC0002FA03F3DB43FA681340FB607B68404A92
:1015CC00934213D07B683F4A93420DD07B683E4ACE
:1015DC00934207D07B683D4A934201D1032306E036
:1015EC00042304E0022302E0012300E000237A6AD2
:1015FC0002F0030292009340FA681343FB602F49F8
:10160C007B6A9B080233FA6841F823203B685B68CD
:10161C0003F48013002B06D02D4B9A682C49BB6920
:10162C0013438B6006E02A4B9A68BB69DB4328495D
:10163C0013408B603B685B6803F40013002B06D0EF
:10164C00234BDA682249BB691343CB6006E0204B7D
:10165C00DA68BB69DB431E491340CB603B685B68AF
:10166C0003F40033002B06D0194B5A681849BB6998
:10167C0013434B6006E0164B5A68BB69DB431449B5
:10168C0013404B603B685B6803F48033002B21D024
:10169C000F4B1A680E49BB6913430B6021E000BF66
:1016AC000000321000003110000022100000211048
:1016BC000000121000001110001002400000014048
:1016CC0000080140000C01400010014000140140D2
:1016DC00000401400B4B1A68BB69DB4309491340FA
:1016EC000B607B6A01337B623B681A687B6A22FA67
:1016FC0003F3002B7FF48EAE00BF00BF2C37BD462A
:10170C0080BC70470004014080B483B000AF7860A7
:10171C000B467B8013467B707B78002B03D07A883A
:10172C007B681A6103E07B881A047B681A6100BF2E
:10173C000C37BD4680BC704780B584B000AF786074
:10174C007B68002B01D101232BE17B6893F83D30A2
:10175C00DBB2002B06D17B68002283F83C20786832
:10176C00FFF730F87B68242283F83D207B681B68E8
:10177C001A687B681B6822F001021A607B681B6880
:10178C001A687B681B6842F400421A607B681B680D
:10179C001A687B681B6822F400421A6001F032F868
:1017AC00F8607B685B68814A934207D8FB68804A83
:1017BC00934294BF01230023DBB206E0FB687D4A11
:1017CC00934294BF01230023DBB2002B01D00123F1
:1017DC00E7E0FB68784AA2FB03239B0CBB607B68A9
:1017EC001B685B6823F03F017B681B68BA680A437F
:1017FC005A607B681B681B6A23F03F017B685B683F
:10180C006A4A934202D8BB68013309E0BB684FF4C3
:10181C00967202FB03F3694AA2FB03239B09013373
:10182C007A6812680B4313627B681B68DB6923F4CC
:10183C004F4222F0FF027B685B685C498B4219D8EF
:10184C00FB68591E7B685B685B00B1FBF3F3591CAA
:10185C0040F6FC730B40002B0AD0FB68591E7B68CA
:10186C005B685B00B1FBF3F30133C3F30B0351E093
:10187C0004234FE07B689B68002B11D1FB68581E3A
:10188C007B6859680B465B000B44B0FBF3F30133E8
:10189C00C3F30B03002B0CBF01230023DBB212E0BC
:1018AC00FB68581E7B6859680B469B000B449900DB
:1018BC000B44B0FBF3F30133C3F30B03002B0CBF4E
:1018CC0001230023DBB2002B01D0012322E07B6833
:1018DC009B68002B0ED1FB68581E7B6859680B4621
:1018EC005B000B44B0FBF3F30133C3F30B0343F482
:1018FC0000430FE0FB68581E7B6859680B469B0041
:10190C000B4499000B44B0FBF3F30133C3F30B030B
:10191C0043F44043796809681343CB617B681B68C7
:10192C001B6823F0C0017B68DA697B681B6A1A4369
:10193C007B681B680A431A607B681B689B6823F4EE
:10194C00034323F0FF037A6811697A68D268114364
:10195C007A6812680B4393607B681B68DB6823F022
:10196C00FF017B685A697B689B691A437B681B681B
:10197C000A43DA607B681B681A687B681B6842F054
:10198C0001021A607B6800221A647B68202283F8AB
:10199C003D207B6800221A637B68002283F83E207E
:1019AC00002318461037BD4680BD00BFA08601003D
:1019BC007F841E00FF083D0083DE1B43D34D621065
:1019CC0080B588B002AFF8607A601A460B467B810E
:1019DC0013463B81FEF7E4FF7861FB6893F83D30DA
:1019EC00DBB2202B40F0E0807B69009319230122AD
:1019FC007049F86800F064F90346002B01D002230B
:101A0C00D3E0FB6893F83C30012B01D10223CCE0EE
:101A1C00FB68012283F83C20FB681B681B6803F001
:101A2C000103012B07D0FB681B681A68FB681B6855
:101A3C0042F001021A60FB681B681A68FB681B689D
:101A4C0022F400621A60FB68212283F83D20FB68B7
:101A5C00102283F83E20FB6800221A64FB687A6827
:101A6C005A62FB683A895A85FB685B8D9AB2FB68AF
:101A7C001A85FB68504ADA6279897B693A6AF86898
:101A8C0000F09CF80346002B01D001238DE00023CD
:101A9C003B61FB681B685B693B61FB681B689B696E
:101AAC003B613B6966E07A69396AF86800F022FAB2
:101ABC000346002B0DD0FB681B6C042B07D1FB6875
:101ACC001B681A68FB681B6842F400721A600123D9
:101ADC006BE0FB685B6A1A78FB681B681A61FB6831
:101AEC005B6A5A1CFB685A62FB685B8D9BB2013BBC
:101AFC009AB2FB685A85FB681B8D013B9AB2FB6856
:101B0C001A85FB681B685B6903F00403042B1BD16B
:101B1C00FB681B8D002B17D0FB685B6A1A78FB687F
:101B2C001B681A61FB685B6A5A1CFB685A62FB688B
:101B3C005B8D9BB2013B9AB2FB685A85FB681B8D8F
:101B4C00013B9AB2FB681A857A69396AF86800F029
:101B5C0019FA0346002B0DD0FB681B6C042B07D124
:101B6C00FB681B681A68FB681B6842F400721A60F9
:101B7C0001231AE0FB681B8D002B94D1FB681B68BA
:101B8C001A68FB681B6842F400721A60FB6820221A
:101B9C0083F83D20FB68002283F83E20FB6800227E
:101BAC0083F83C20002300E0022318461837BD467A
:101BBC0080BD00BF020010000000FFFF80B588B0A0
:101BCC0002AFF8607A603B600B467B81FB68DB6A96
:101BDC007B617B69082B06D07B69012B03D07B6969
:101BEC0013F5803F08D1FB681B681A68FB681B68FB
:101BFC0042F480721A600BE0FB681B6B122B07D14E
:101C0C00FB681B681A68FB681B6842F480721A60D8
:101C1C003B6800937B6800224FF00111F86800F0DC
:101C2C004FF80346002B0DD0FB681B681B6803F4B0
:101C3C008073B3F5807F03D1FB684FF400721A6494
:101C4C00032335E0FB681B69B3F5804F08D17B8912
:101C5C00DBB21A46FB681B6802F0FE021A611BE03D
:101C6C007B89DB11DBB203F00603DBB263F00F03FD
:101C7C00DAB2FB681B681A613B687A680E49F8682F
:101C8C0000F098F80346002B01D0012310E07B896B
:101C9C00DAB2FB681B681A613B687A680749F86816
:101CAC0000F088F80346002B01D0012300E000234C
:101CBC0018461837BD4680BD08000100020001001F
:101CCC0080B584B000AFF860B9603B601346FB711F
:101CDC0048E03B68B3F1FF3F44D0FEF761FE02469B
:101CEC00BB69D31A3A689A4202D33B68002B39D1AC
:101CFC00BB681B0CDBB2012B0DD1FB681B685B694D
:101D0C00DA43BB6813409BB2002B0CBF01230023AA
:101D1C00DBB21A460CE0FB681B689B69DA43BB68B4
:101D2C0013409BB2002B0CBF01230023DBB21A46DD
:101D3C00FB799A4216D1FB6800221A63FB682022B9
:101D4C0083F83D20FB68002283F83E20FB681B6C67
:101D5C0043F02002FB681A64FB68002283F83C20E5
:101D6C00012323E0BB681B0CDBB2012B0DD1FB68FC
:101D7C001B685B69DA43BB6813409BB2002B0CBF3A
:101D8C0001230023DBB21A460CE0FB681B689B693D
:101D9C00DA43BB6813409BB2002B0CBF012300231A
:101DAC00DBB21A46FB799A4293D0002318461037BF
:101DBC00BD4680BD80B584B000AFF860B9607A6074
:101DCC003B6071E0FB681B685B6903F48063B3F5EF
:101DDC00806F23D1FB681B681A68FB681B6842F490
:101DEC0000721A60FB681B686FF480625A61FB68B2
:101DFC0000221A63FB68202283F83D20FB68002236
:101E0C0083F83E20FB681B6C43F00402FB681A64E9
:101E1C00FB68002283F83C20012367E07B68B3F168
:101E2C00FF3F41D0FEF7BCFD02463B68D31A7A68EF
:101E3C009A4202D37B68002B36D1BB681B0CDBB2F9
:101E4C00012B0CD1FB681B685B69DA43BB68134040
:101E5C009BB2002B14BF01230023DBB20BE0FB6809
:101E6C001B689B69DA43BB6813409BB2002B14BF01
:101E7C0001230023DBB2002B16D0FB6800221A636F
:101E8C00FB68202283F83D20FB68002283F83E206B
:101E9C00FB681B6C43F02002FB681A64FB68002291
:101EAC0083F83C20012321E0BB681B0CDBB2012B27
:101EBC000CD1FB681B685B69DA43BB6813409BB2AF
:101ECC00002B14BF01230023DBB20BE0FB681B6863
:101EDC009B69DA43BB6813409BB2002B14BF0123F0
:101EEC000023DBB2002B7FF46DAF002318461037B4
:101EFC00BD4680BD80B584B000AFF860B9607A6033
:101F0C0034E0F86800F086F80346002B01D001237A
:101F1C0034E0BB68B3F1FF3F28D0FEF741FD024629
:101F2C007B68D31ABA689A4202D3BB68002B1DD1C6
:101F3C00FB681B685B6903F08003802B16D0FB6881
:101F4C0000221A63FB68202283F83D20FB680022E4
:101F5C0083F83E20FB681B6C43F02002FB681A647C
:101F6C00FB68002283F83C20012307E0FB681B6818
:101F7C005B6903F08003802BC3D100231846103714
:101F8C00BD4680BD80B584B000AFF860B9607A60A2
:101F9C0034E0F86800F03EF80346002B01D0012332
:101FAC0034E0BB68B3F1FF3F28D0FEF7F9FC0246E2
:101FBC007B68D31ABA689A4202D3BB68002B1DD136
:101FCC00FB681B685B6903F00403042B16D0FB68E9
:101FDC0000221A63FB68202283F83D20FB68002254
:101FEC0083F83E20FB681B6C43F02002FB681A64EC
:101FFC00FB68002283F83C20012307E0FB681B6888
:10200C005B6903F00403042BC3D10023184610377B
:10201C00BD4680BD80B483B000AF78607B681B6820
:10202C005B6903F48063B3F5806F1BD17B681B681D
:10203C006FF480625A617B6800221A637B682022ED
:10204C0083F83D207B68002283F83E207B681B6C64
:10205C0043F004027B681A647B68002283F83C20FE
:10206C00012300E0002318460C37BD4680BC7047A6
:10207C0080B586B000AF78607B68002B01D101235E
:10208C0072E27B681B6803F00103002B00F0878071
:10209C00924B5B6803F00C03042B0CD08F4B5B68EA
:1020AC0003F00C03082B12D18C4B5B6803F48033C8
:1020BC00B3F5803F0BD1894B1B6803F40033002B25
:1020CC006CD07B685B68002B68D101234CE27B6889
:1020DC005B68B3F5803F06D1804B1B687F4A43F4A5
:1020EC00803313602EE07B685B68002B0CD17B4B3C
:1020FC001B687A4A23F480331360784B1B68774A49
:10210C0023F4802313601DE07B685B68B3F5A02F7C
:10211C000CD1724B1B68714A43F4802313606F4BD4
:10212C001B686E4A43F4803313600BE06B4B1B68E7
:10213C006A4A23F480331360684B1B68674A23F4A4
:10214C00802313607B685B68002B13D0FEF728FCA0
:10215C00386108E0FEF724FC02463B69D31A642B75
:10216C0001D9032300E25D4B1B6803F40033002B01
:10217C00F0D014E0FEF714FC386108E0FEF710FC18
:10218C0002463B69D31A642B01D90323ECE1534B70
:10219C001B6803F40033002BF0D100E000BF7B6818
:1021AC001B6803F00203002B63D04C4B5B6803F0FD
:1021BC000C03002B0BD0494B5B6803F00C03082B72
:1021CC001CD1464B5B6803F48033002B16D1434B78
:1021DC001B6803F00203002B05D07B681B69012BE5
:1021EC0001D00123C0E13D4B1B6823F0F8027B6852
:1021FC005B69DB00394913430B603AE07B681B6970
:10220C00002B20D0364B01221A60FEF7C9FB386137
:10221C0008E0FEF7C5FB02463B69D31A022B01D935
:10222C000323A1E12D4B1B6803F00203002BF0D01C
:10223C002A4B1B6823F0F8027B685B69DB0027499B
:10224C0013430B6015E0264B00221A60FEF7A8FB27
:10225C00386108E0FEF7A4FB02463B69D31A022B57
:10226C0001D9032380E11D4B1B6803F00203002BF3
:10227C00F0D17B681B6803F00803002B3AD07B6815
:10228C009B69002B19D0174B01221A60FEF788FBB3
:10229C00386108E0FEF784FB02463B69D31A022B37
:1022AC0001D9032360E10D4B5B6A03F00203002BA1
:1022BC00F0D0012000F0BAFA1CE00A4B00221A60A0
:1022CC00FEF76EFB38610FE0FEF76AFB02463B69D6
:1022DC00D31A022B08D9032346E100BF0010024099
:1022EC000000424280044242924B5B6A03F00203BC
:1022FC00002BE9D17B681B6803F00403002B00F072
:10230C00A6800023FB758B4BDB6903F08053002BFD
:10231C000DD1884BDB69874A43F08053D361854BE1
:10232C00DB6903F08053BB60BB680123FB75824BF8
:10233C001B6803F48073002B18D17F4B1B687E4AFB
:10234C0043F480731360FEF72BFB386108E0FEF753
:10235C0027FB02463B69D31A642B01D9032303E103
:10236C00754B1B6803F48073002BF0D07B68DB6823
:10237C00012B06D16F4B1B6A6E4A43F001031362AB
:10238C002DE07B68DB68002B0CD16A4B1B6A694A19
:10239C0023F001031362674B1B6A664A23F00403A4
:1023AC0013621CE07B68DB68052B0CD1614B1B6A4C
:1023BC00604A43F0040313625E4B1B6A5D4A43F0B0
:1023CC00010313620BE05B4B1B6A5A4A23F00103B7
:1023DC001362584B1B6A574A23F0040313627B6841
:1023EC00DB68002B15D0FEF7DBFA38610AE0FEF74C
:1023FC00D7FA02463B69D31A41F28832934201D98B
:10240C000323B1E04B4B1B6A03F00203002BEED00D
:10241C0014E0FEF7C5FA38610AE0FEF7C1FA02468D
:10242C003B69D31A41F28832934201D903239BE0D2
:10243C00404B1B6A03F00203002BEED1FB7D012BFA
:10244C0005D13C4BDB693B4A23F08053D3617B685D
:10245C00DB69002B00F08780364B5B6803F00C03C4
:10246C00082B61D07B68DB69022B46D1334B0022F1
:10247C001A60FEF795FA386108E0FEF791FA024609
:10248C003B69D31A022B01D903236DE0294B1B683E
:10249C0003F00073002BF0D17B681B6AB3F5803F0F
:1024AC0008D1244B5B6823F400327B689B6821497C
:1024BC0013434B601F4B5B6823F474127B68196ADF
:1024CC007B685B6A0B431B4913434B601B4B01221C
:1024DC001A60FEF765FA386108E0FEF761FA024609
:1024EC003B69D31A022B01D903233DE0114B1B6826
:1024FC0003F00073002BF0D035E0104B00221A6073
:10250C00FEF74EFA386108E0FEF74AFA02463B69DC
:10251C00D31A022B01D9032326E0064B1B6803F0C8
:10252C000073002BF0D11EE07B68DB69012B07D117
:10253C00012319E00010024000700040600042428C
:10254C000B4B5B68FB60FB6803F480327B681B6A97
:10255C009A4206D1FB6803F470127B685B6A9A425C
:10256C0001D0012300E0002318461837BD4680BD7A
:10257C000010024080B584B000AF786039607B6891
:10258C00002B01D10123D0E06A4B1B6803F0070339
:10259C003A689A4210D9674B1B6823F007026549C9
:1025AC003B6813430B60634B1B6803F007033A68EB
:1025BC009A4201D00123B8E07B681B6803F0020348
:1025CC00002B20D07B681B6803F00403002B05D084
:1025DC00594B5B68584A43F4E06353607B681B6853
:1025EC0003F00803002B05D0534B5B68524A43F4AD
:1025FC0060535360504B5B6823F0F0027B689B6820
:10260C004D4913434B607B681B6803F00103002B9F
:10261C0040D07B685B68012B07D1474B1B6803F4E8
:10262C000033002B15D101237FE07B685B68022B04
:10263C0007D1414B1B6803F00073002B09D1012318
:10264C0073E03D4B1B6803F00203002B01D1012307
:10265C006BE0394B5B6823F003027B685B6836499F
:10266C0013434B60FEF79CF9F8600AE0FEF798F90B
:10267C000246FB68D31A41F28832934201D90323F4
:10268C0053E02D4B5B6803F00C027B685B689B008E
:10269C009A42EBD1274B1B6803F007033A689A4226
:1026AC0010D2244B1B6823F0070222493B681343CA
:1026BC000B60204B1B6803F007033A689A4201D069
:1026CC00012332E07B681B6803F00403002B08D065
:1026DC00194B5B6823F4E0627B68DB681649134393
:1026EC004B607B681B6803F00803002B09D0124B6E
:1026FC005B6823F460527B681B69DB000E49134353
:10270C004B6000F021F802460B4B5B681B0903F091
:10271C000F030A49CB5C22FA03F3094A1360094BF5
:10272C001B681846FEF7FAF8002318461037BD460A
:10273C0080BD00BF002002400010024008290008A4
:10274C00040000200800002080B487B000AF0023F4
:10275C00FB600023BB6000237B6100237B600023B4
:10276C003B611E4B5B68FB60FB6803F00C03042BA6
:10277C0002D0082B03D027E0194B3B6127E0FB6804
:10278C009B0C03F00F03174AD35C7B60FB6803F4CC
:10279C008033002B10D0114B5B685B0C03F00103F2
:1027AC00114AD35CBB607B680D4A03FB02F2BB6829
:1027BC00B2FBF3F37B6104E07B680C4A02FB03F38E
:1027CC007B617B693B6102E0054B3B6100BF3B6970
:1027DC0018461C37BD4680BC704700BF0010024035
:1027EC0000127A00202900083029000800093D0059
:1027FC0080B400AF024B1B681846BD4680BC7047C6
:10280C000400002080B500AFFFF7F2FF0246054B35
:10281C005B681B0A03F007030349CB5C22FA03F342
:10282C00184680BD001002401829000880B485B0FD
:10283C0000AF78600A4B1B680A4AA2FB03235B0AB1
:10284C007A6802FB03F3FB6000BFFB685A1EFA6058
:10285C00002BF9D100BF00BF1437BD4680BC7047B8
:10286C0004000020D34D621003460244934200D171
:10287C00704703F8011BF9E770B500260C4D0D4CA1
:10288C00641BA410A64209D100F01AF800260A4DC8
:10289C000A4C641BA410A64205D170BD55F8043B2C
:1028AC0098470136EEE755F8043B98470136F2E7B6
:1028BC003429000834290008342900083829000874
:1028CC00F8B500BFF8BC08BC9E467047F8B500BF11
:0828DC00F8BC08BC9E467047E1
:1028E400204144432056455249204F4B554D413ACF
:1028F400000000002020724164632056616C7565FD
:102904003A2020000000000000000000010203043F
:10291400060708090000000001020304020304057D
:10292400060708090A0B0C0D0E0F10100102000017
:042934003101000865
:042938000D01000885
:10293C000100000000127A001000000001000000ED
:04000005080008B136
:00000001FF
